:020000020000FC
:100000000C94020007E806B90FE10BBB0FEF07BB2A
:100010000FEF08BB00EC07B907EC06B936990C9452
:100020000E0014B11F301CF4C09A0C941800C09834
:1000300001EC07B907EC06B936990C941C0014B111
:100040001F301CF4C19A0C942600C19802EC07B929
:1000500007EC06B936990C942A0014B11F301CF431
:10006000C29A0C943400C29803EC07B907EC06B9A5
:1000700036990C94380014B11F301CF4C39A0C94B8
:100080004200C39804EC07B907EC06B936990C9402
:10009000460014B11F301CF4C49A0C945000C4984C
:0400A0000C940A00B2
:00000001FF
