:020000020000FC
:040000000C942A0032
:040024000C94A20096
:1000540004E00EBF0FE50DBFE0E0F0E00FEF07BBDB
:1000640008BB00E001BB0FEF02BB07E806B90FE1D4
:100074000BBB00E002BF01E019B7102B19BF05E06C
:1000840003BF789480990C94440087990C9486005B
:10009400E3FF0C94860081990C945A00E7FD0C94BC
:1000A4005A00E5FD0C945A00E260EE7FC598C39AAD
:1000B40082990C946400E6FF0C946400E160ED7F87
:1000C400C398C59AE2FF0C947200E6FF0C946D008D
:1000D400E4FD0C947200F6FD0C947200C498F66072
:1000E400F6FF0C947E00F7FD0C947E00C698F76032
:1000F4000E94ED00F260C298849B0C948600859B5C
:100104000C9486000C944700F8940EEF08BBA89A50
:1001140060E050E063956F3FE9F760E05395543039
:10012400C9F7A89860E050E063956F3FE9F760E095
:1001340053955430C9F786990C9489000C942A007D
:100144004FB74F9320EC27B927EC26B936990C9476
:10015400A80034B13F3018F4EC7F0C94B200E36093
:1001640021EC27B927EC26B936990C94B60034B1A2
:100174003F3018F4E87F0C94C000E76022EC27B904
:1001840027EC26B936990C94C40034B13F3018F4E6
:10019400E97F0C94CE00E66023EC27B927EC26B95E
:1001A40036990C94D20034B13F3018F4EA7F0C94A1
:1001B400DC00E56024EC27B927EC26B936990C94C9
:1001C400E00034B13F3018F4EB7F0C94EA00E460B3
:1001D4004F914FBF189573E089E39EE2ADE0AA9575
:1001E400F1F79A95E1F78A95D1F77A95C1F70895D1
:00000001FF
