:020000020000FC
:040000000C942A0032
:040024000C94A00098
:1000540004E00EBF0FE50DBFE0E0F0E30FEF07BBD8
:1000640008BB00E001BB0FEF02BB07E806B90FE1D4
:100074000BBB00E002BF01E019B7102B19BF05E06C
:10008400789480990C94430087990C948400E3FF3E
:100094000C94840081990C945900E7FD0C94590048
:1000A400E5FD0C945900E260EE7FC598C39A8299ED
:1000B4000C946300E6FF0C946300E160ED7FC39849
:1000C400C59AE2FF0C947000E6FF0C946C00E4FD0A
:1000D4000C947000F6FD0C947000C498F6FF0C9418
:1000E4007C00F7FD0C947C00C698F7600E94EB003E
:1000F400F260C298849B0C948400859B0C948400C9
:100104000C944600F8940EEF08BBA89A60E050E007
:1001140063956F3FE9F760E053955430C9F7A898A9
:1001240060E050E063956F3FE9F760E05395543029
:10013400C9F786990C9487000C942A004FB74F9303
:1001440020EC27B927EC26B936990C94A60034B1D3
:100154003F3018F4EC7F0C94B000E36021EC27B935
:1001640027EC26B936990C94B40034B13F3018F416
:10017400E87F0C94BE00E76022EC27B927EC26B98F
:1001840036990C94C20034B13F3018F4E97F0C94D2
:10019400CC00E66023EC27B927EC26B936990C94F9
:1001A400D00034B13F3018F4EA7F0C94DA00E560F3
:1001B40024EC27B927EC26B936990C94DE0034B127
:1001C4003F3018F4EB7F0C94E800E4604F914FBF8C
:1001D400189573E089E39EE2ADE0AA95F1F79A954C
:0C01E400E1F78A95D1F77A95C1F70895EC
:00000001FF
