:020000020000FC
:040000000C942A0032
:040024000C94B80080
:040010000C94BE008E
:100054000FE50DBF04E00EBFE0E0F0E300E001BBFC
:100064000FEF08BB0FEF07BB00E008BB00E004BDC7
:1000740009B7006409BF01E005BD02E806B9A09A0A
:10008400A898F89480990C944400E3FF0C948C0095
:100094007894C79A879B0C948C0081990C945C008B
:1000A400E7FD0C945C00E5FD0C945C00E260EE7FDF
:1000B400C59AC39882990C946600E6FF0C94660076
:1000C400E160ED7FC598C39AE2FF0C947700E6FFE8
:1000D4000C946F00E4FD0C947700F4FF0C948C00F6
:1000E400F3FD0C947700F660C49AF6FF0C94870035
:1000F400F5FF0C948C00F3FD0C948700F2FD0C9436
:100104008700C69A0E94A700F760F3FD0C948C0048
:100114000C944C00F894C09AA89A60E050E063955F
:100124006F3FE9F760E053955430C9F7A89860E051
:1001340050E063956F3FE9F760E053955430C9F799
:1001440086990C948E000C942A0030E020E022BFA3
:1001540029B7216029BF15E013BF3F3FF4F329B746
:100164002E7F29BF10E013BFC29A08954FB74F9353
:1001740033954F914FBF18954FB74F9371EE77B9A1
:10018400369A86B186FD0C94C30095B19F301CF459
:10019400E7600C94CE00E87F72EE77B9369A86B1A8
:1001A40086FD0C94D10095B19F301CF4E6600C944C
:1001B400DC00E66073EE77B9369A86B186FD0C945E
:1001C400DF0095B19F301CF4E5600C94EA00EB7FEE
:1001D40074EE77B9369A86B186FD0C94ED0095B12C
:1001E4009F301CF4E4600C94F800EB7F70EE77B958
:1001F400369A86B186FD0C94FB0095B19F3024F4A9
:10020400E360C19A0C940801EC7FC198849B0C9420
:100214000E01F5600C940F01FA7F859B0C94150177
:0E022400F4600C941601FB7F4F914FBF1895AC
:00000001FF
