:020000020000FC
:040000000C942A0032
:040024000C94AB008D
:1000540004E00EBF0FE50DBFE0E0F0E00FEF07BBDB
:1000640008BB00E001BB0FEF02BB00BB07E806B909
:100074000FE10BBB0AEF02BF01E019B7102B19BF48
:1000840001E003BF789480990C944500879B0C94FD
:100094008F00E3FF0C948F0081990C945B00E7FDC3
:1000A4000C945B00E5FD0C945B00E460ED7FC59867
:1000B400C39A82990C946500E6FF0C946500E26093
:1000C400EB7FC398C59AE2FF0C947300E6FF0C948F
:1000D4006E00E4FD0C947300F6FD0C947300C49858
:1000E400F064F6FF0C947F00F7FD0C947F00C69833
:1000F400F0680E94FC00F460C298849B0C948F000A
:10010400859B0C948F00E6FF0C948D00E4FF0C9407
:100114008D000C948F000C944800F8940EEF08BBEB
:10012400A89A60E050E063956F3FE9F760E053956B
:100134005430C9F7A89860E050E063956F3FE9F741
:1001440060E053955430C9F786990C9492000C944E
:100154002A004FB74F9300004F914FBF18954FB7E8
:100164004F9320EC27B927EC26B936990C94B700A5
:1001740034B13F3018F4E77F0C94C100E86021ECFF
:1001840027B927EC26B936990C94C50034B13F3011
:1001940018F4EF770C94CF00E06822EC27B927EC31
:1001A40026B936990C94D30034B13F3018F4EF7B60
:1001B4000C94DD00E06423EC27B927EC26B93699CA
:1001C4000C94E10034B13F3018F4EF7D0C94EB0053
:1001D400E06224EC27B927EC26B936990C94EF0099
:1001E40034B13F3018F4EF7E0C94F900E0614F9184
:1001F4004FBF189573E089E39EE2ADE0AA95F1F74D
:0E0204009A95E1F78A95D1F77A95C1F708959A
:00000001FF
