:020000020000FC
:040000000C942A0032
:040010000C94F90053
:040024000C94AE008A
:10005400F89404E00EBF0FE50DBFE0E0F0E0A09AD5
:10006400A8980FEF07BB08BB00E001BB0FEF02BB72
:1000740005E806B90FE10BBB19B71F7B19BF10E0E8
:1000840015BDC0E00AEF02BF01E019B7102B19BF7C
:1000940001E003BF789480990C944D00C798879B26
:1000A4000C949800E3FF0C94980081990C946400DC
:1000B400E7FD0C946400E5FD0C946400E460ED7FBE
:1000C400C598C39A82990C946E00E6FF0C946E0056
:1000D400E260EB7FC398C59AE2FF0C947C00E6FFD4
:1000E4000C947700E4FD0C947C00F6FD0C947C00E9
:1000F400C498F064F6FF0C948800F7FD0C94880013
:10010400C698F0680E940901F460C298849B0C941C
:100114009800859B0C949800E6FF0C949600E4FFED
:100124000C9496000C9498000C945100F89419B710
:100134001E7F19BF10E013BF19B7106419BF10E078
:1001440014BD11E015BD78940EEF08BBA89A8699EA
:100154000C94A9000C942A004FB74F9320EE27B9B2
:1001640027EC26B936990C94B40035B13F3018F415
:10017400E77F0C94BE00E86021EE27B927EC26B98E
:1001840036990C94C20034B13F3018F4EF770C94D4
:10019400CC00E06822EE27B927EC26B936990C94F6
:1001A400D00035B13F3018F4EF7B0C94DA00E064F2
:1001B40023EE27B927EC26B936990C94DE0035B125
:1001C4003F3018F4EF7D0C94E800E06224EE27B988
:1001D40027EC26B936990C94EC0035B13F3018F46D
:1001E400EF7E0C94F600E0614F914FBF1895BFB7B6
:1001F400BF93C395C73041F4C0E0C0990C94050186
:10020400C09A0C940601C098BF91BFBF1895F8948A
:100214007FE88CE092E49A95F1F78A95E1F77A9574
:06022400D1F77894089563
:00000001FF
