:020000020000FC
:040000000C942A0032
:040024000C94A10097
:040010000C94A700A5
:100054000FE50DBF04E00EBFE0E0F0E300E001BBFC
:100064000FEF08BB0FEF07BB00E008BB00E004BDC7
:1000740009B7006409BF01E005BD02E806B9F894B8
:10008400809B0C944200E3FF0C948A007894C79AF6
:1000940087990C948A00819B0C945A00E7FD0C9478
:1000A4005A00E5FD0C945A00E260EE7FC59AC398AD
:1000B400829B0C946400E6FF0C946400E160ED7F85
:1000C400C598C39AE2FF0C947500E6FF0C946D008A
:1000D400E4FD0C947500F4FF0C948A00F3FD0C9479
:1000E4007500F660C49AF6FF0C948500F5FF0C9435
:1000F4008A00F3FD0C948500F2FD0C9485000E94A7
:100104009100F760C69AF3FD0C948A000C944A009F
:10011400F894C09A869B0C948C000C942A0030E0CE
:1001240020E022BF29B7216029BF15E013BF3D336A
:10013400F0F329B72E7F29BF10E013BF08954FB7FE
:100144004F9333954F914FBF189571EE77B9369A07
:1001540086B186FD0C94AA0095B19F3018F4E7602F
:100164000C94B500E87F72EE77B9369A86B186FDB5
:100174000C94B80095B19F3018F4E6600C94C30059
:10018400E66073EE77B9369A86B186FD0C94C600A4
:1001940095B19F3018F4E5600C94D100EB7F74EEB8
:1001A40077B9369A86B186FD0C94D40095B19F3008
:1001B40018F4E4600C94DF00EB7F70EE77B9369AA4
:1001C40086B186FD0C94E20095B19F3018F4E3608B
:0801D4000C94ED00EC7F18957E
:00000001FF
